{
  "_format": "hh-sol-artifact-1",
  "contractName": "Donate",
  "sourceName": "contracts/Donate.sol",
  "abi": [
    {
      "inputs": [],
      "stateMutability": "nonpayable",
      "type": "constructor"
    },
    {
      "inputs": [
        {
          "internalType": "string",
          "name": "_donarName",
          "type": "string"
        }
      ],
      "name": "donateFund",
      "outputs": [],
      "stateMutability": "payable",
      "type": "function"
    },
    {
      "inputs": [],
      "name": "getBalance",
      "outputs": [
        {
          "internalType": "uint256",
          "name": "",
          "type": "uint256"
        }
      ],
      "stateMutability": "view",
      "type": "function"
    },
    {
      "inputs": [],
      "name": "getDonationDetails",
      "outputs": [
        {
          "components": [
            {
              "internalType": "string",
              "name": "donorName",
              "type": "string"
            },
            {
              "internalType": "uint256",
              "name": "donationAmount",
              "type": "uint256"
            },
            {
              "internalType": "uint256",
              "name": "timestamp",
              "type": "uint256"
            },
            {
              "internalType": "address",
              "name": "from",
              "type": "address"
            }
          ],
          "internalType": "struct Donate.DonationDetail[]",
          "name": "",
          "type": "tuple[]"
        }
      ],
      "stateMutability": "view",
      "type": "function"
    }
  ],
  "bytecode": "0x608060405234801561001057600080fd5b5033600160006101000a81548173ffffffffffffffffffffffffffffffffffffffff021916908373ffffffffffffffffffffffffffffffffffffffff160217905550610b27806100616000396000f3fe6080604052600436106100345760003560e01c806308a539991461003957806312065fe014610055578063485facba14610080575b600080fd5b610053600480360381019061004e9190610503565b6100ab565b005b34801561006157600080fd5b5061006a61022f565b6040516100779190610565565b60405180910390f35b34801561008c57600080fd5b5061009561024e565b6040516100a29190610774565b60405180910390f35b600034116100ee576040517f08c379a00000000000000000000000000000000000000000000000000000000081526004016100e5906107f3565b60405180910390fd5b600160009054906101000a900473ffffffffffffffffffffffffffffffffffffffff1673ffffffffffffffffffffffffffffffffffffffff166108fc349081150290604051600060405180830381858888f19350505050158015610156573d6000803e3d6000fd5b50600060405180608001604052808381526020013481526020014281526020013373ffffffffffffffffffffffffffffffffffffffff16815250908060018154018082558091505060019003906000526020600020906004020160009091909190915060008201518160000190816101ce9190610a1f565b50602082015181600101556040820151816002015560608201518160030160006101000a81548173ffffffffffffffffffffffffffffffffffffffff021916908373ffffffffffffffffffffffffffffffffffffffff160217905550505050565b60003373ffffffffffffffffffffffffffffffffffffffff1631905090565b60606000805480602002602001604051908101604052809291908181526020016000905b828210156103a057838290600052602060002090600402016040518060800160405290816000820180546102a590610842565b80601f01602080910402602001604051908101604052809291908181526020018280546102d190610842565b801561031e5780601f106102f35761010080835404028352916020019161031e565b820191906000526020600020905b81548152906001019060200180831161030157829003601f168201915b5050505050815260200160018201548152602001600282015481526020016003820160009054906101000a900473ffffffffffffffffffffffffffffffffffffffff1673ffffffffffffffffffffffffffffffffffffffff1673ffffffffffffffffffffffffffffffffffffffff168152505081526020019060010190610272565b50505050905090565b6000604051905090565b600080fd5b600080fd5b600080fd5b600080fd5b6000601f19601f8301169050919050565b7f4e487b7100000000000000000000000000000000000000000000000000000000600052604160045260246000fd5b610410826103c7565b810181811067ffffffffffffffff8211171561042f5761042e6103d8565b5b80604052505050565b60006104426103a9565b905061044e8282610407565b919050565b600067ffffffffffffffff82111561046e5761046d6103d8565b5b610477826103c7565b9050602081019050919050565b82818337600083830152505050565b60006104a66104a184610453565b610438565b9050828152602081018484840111156104c2576104c16103c2565b5b6104cd848285610484565b509392505050565b600082601f8301126104ea576104e96103bd565b5b81356104fa848260208601610493565b91505092915050565b600060208284031215610519576105186103b3565b5b600082013567ffffffffffffffff811115610537576105366103b8565b5b610543848285016104d5565b91505092915050565b6000819050919050565b61055f8161054c565b82525050565b600060208201905061057a6000830184610556565b92915050565b600081519050919050565b600082825260208201905092915050565b6000819050602082019050919050565b600081519050919050565b600082825260208201905092915050565b60005b838110156105e65780820151818401526020810190506105cb565b60008484015250505050565b60006105fd826105ac565b61060781856105b7565b93506106178185602086016105c8565b610620816103c7565b840191505092915050565b6106348161054c565b82525050565b600073ffffffffffffffffffffffffffffffffffffffff82169050919050565b60006106658261063a565b9050919050565b6106758161065a565b82525050565b6000608083016000830151848203600086015261069882826105f2565b91505060208301516106ad602086018261062b565b5060408301516106c0604086018261062b565b5060608301516106d3606086018261066c565b508091505092915050565b60006106ea838361067b565b905092915050565b6000602082019050919050565b600061070a82610580565b610714818561058b565b9350836020820285016107268561059c565b8060005b85811015610762578484038952815161074385826106de565b945061074e836106f2565b925060208a0199505060018101905061072a565b50829750879550505050505092915050565b6000602082019050818103600083015261078e81846106ff565b905092915050565b600082825260208201905092915050565b7f506c65617365207061792067726561746572207468616e203020657468657200600082015250565b60006107dd601f83610796565b91506107e8826107a7565b602082019050919050565b6000602082019050818103600083015261080c816107d0565b9050919050565b7f4e487b7100000000000000000000000000000000000000000000000000000000600052602260045260246000fd5b6000600282049050600182168061085a57607f821691505b60208210810361086d5761086c610813565b5b50919050565b60008190508160005260206000209050919050565b60006020601f8301049050919050565b600082821b905092915050565b6000600883026108d57fffffffffffffffffffffffffffffffffffffffffffffffffffffffffffffffff82610898565b6108df8683610898565b95508019841693508086168417925050509392505050565b6000819050919050565b600061091c6109176109128461054c565b6108f7565b61054c565b9050919050565b6000819050919050565b61093683610901565b61094a61094282610923565b8484546108a5565b825550505050565b600090565b61095f610952565b61096a81848461092d565b505050565b5b8181101561098e57610983600082610957565b600181019050610970565b5050565b601f8211156109d3576109a481610873565b6109ad84610888565b810160208510156109bc578190505b6109d06109c885610888565b83018261096f565b50505b505050565b600082821c905092915050565b60006109f6600019846008026109d8565b1980831691505092915050565b6000610a0f83836109e5565b9150826002028217905092915050565b610a28826105ac565b67ffffffffffffffff811115610a4157610a406103d8565b5b610a4b8254610842565b610a56828285610992565b600060209050601f831160018114610a895760008415610a77578287015190505b610a818582610a03565b865550610ae9565b601f198416610a9786610873565b60005b82811015610abf57848901518255600182019150602085019450602081019050610a9a565b86831015610adc5784890151610ad8601f8916826109e5565b8355505b6001600288020188555050505b50505050505056fea264697066735822122073b19eeddebe0ccf5c6cf73cd73799b58cd151161cfbad6cabffa8f71d36772c64736f6c63430008130033",
  "linkReferences": {},
  "deployedLinkReferences": {}
}